:1070000061C00000A0C0000084C0000082C0000079
:1070100080C000007EC000007CC000007AC000007C
:1070200078C0000076C0000074C0000072C000008C
:1070300070C000006EC000006CC000006AC000009C
:1070400068C0000066C0000064C0000062C00000AC
:1070500060C00000EC2DFD2DB7B6B0FCFDCF27BF02
:10706000E895B7B6B0FCFDCF21E1B7B6B6FCF4CFDA
:107070000895040309041C037700770077002E00AD
:10708000660069007300630068006C002E006400F5
:1070900065000E035500530042006100730070004C
:1070A00012011001FF000008C016DC0502010102F8
:1070B00000010902120001010080320904000000F1
:1070C0000000000011241FBECFE5D8E0DEBFCDBF19
:1070D00034B7D8E0CEE529912833299109F02FEF74
:1070E00020939D0030939E0010E0A0E6B0E0E0E623
:1070F000F8E702C005900D92A636B107D9F710E067
:10710000A6E6B0E001C01D92AD39B107E1F78AD122
:10711000A5C376CFA82FB92F80E090E041E050EAD8
:10712000609530E009C02D9182279795879510F0E2
:1071300084279527305EC8F36F5FA8F30895EADFD0
:107140008D939D930895CF93CFB7CF93DF93C3953E
:10715000839BE9F7839B0BC0839B09C0839B07C07C
:10716000839B05C0839B03C0839B01C089C06F9331
:10717000C0918000DD27C957DF4F2F9365E5839BC2
:1071800003C02F916F91E6CF0F931F934F9320E091
:1071900040E15F9300B30C7003FB27F93F9350E08D
:1071A0003BE039C01C7040642F77012F5F5F1EC029
:1071B000406810B31C702F7752501FC0406400B35A
:1071C0002F770C70D1F15F5F00C023C0406210B315
:1071D0002F771C7091F15F5F00C025C00C701027E5
:1071E000515012F45D5F0000115027952C3F10B3F1
:1071F000C8F61C700127015027952C3FC8F642277E
:10720000499300B30C7010274F73115027952C3FF2
:10721000A8F64695469510B31C7079F001270150E9
:1072200027952C3F98F66B5A60F3315000B3B0F6B7
:1072300000C010E41ABF002717C03B503195C31B94
:10724000D04010E41ABF0881033CF9F00B34E9F098
:1072500020917E001981110F1213EDCF093651F1E3
:107260000D3211F0013E39F7009385003F915F9197
:107270004F911F910F912F916F91CAB7C6FD67CFA4
:10728000DF91CF91CFBFCF91189520918500222318
:1072900069F310918300112339F534303AF13093BA
:1072A000830020937F00109180003BE0311B3093DE
:1072B00080001CC0009183000130B4F40AE53091D5
:1072C000600034FD14C000936000C3E7D0E013C039
:1072D000052710E000C0000002BB1AC0052710E01F
:1072E000221F1DC010E021C04AE502C032ED432F2D
:1072F000C4E1D0E032E011B31C60939A02B311BB39
:107300005CE020E865E320FF052702BB2795179581
:107310001C3FF0F66695B8F7B1F720FF052702BBD2
:10732000279517951C3FD0F62795179517FF05272A
:1073300000001C3F02BBB0F629913A9519F7037F74
:1073400010918400110FC651D04002BB11F0109370
:107350007E0010E41ABF086011B3137F402F437FF3
:1073600054E05A95F1F702BB11BB42BB7FCFFB0142
:10737000A89531978040E1F70895DC0113962C9190
:10738000139714969C91149712968C9112978033B0
:1073900039F49370E92FF0E0EE59FF4F80810895A2
:1073A000F22FE92F883549F4222391F4E1E0F0E04F
:1073B00089E08093570084910895803591F42223C9
:1073C00051F5E0E0F0E089E0809357008491089562
:1073D000283009F5E3E0F0E089E0809357008491DC
:1073E0000895803221F4EE0FFF1F849108958832B2
:1073F00029F4EE0FFF1F319684910895803A11F41D
:10740000CF0117C2803C29F4CF0115966C9119D297
:1074100002C08F3F11F080E0089581EF80936B00F0
:1074200080E0089511BA80E182BB81E08BBF82E0E9
:107430008BBF60E071E79BDF80919E00877F21F426
:1074400080919D00882311F08499E6C18EEF80938E
:107450006B0014BE88E10FB6F89481BD11BC0FBE5D
:1074600085B7826085BF8BB780648BBF8B9A8CE0B9
:1074700060E075E37CDF8B98789490918300935063
:1074800097FD31C180918000CCE0D0E0C81BD109CC
:10749000C957DF4F80917F008D3209F0BAC0983014
:1074A00009F01FC183EC809373008AE5809360002C
:1074B00010926A003881832F807629818823D1F148
:1074C00086E690E09093820080938100233031F42F
:1074D000CE0153DF8093690024E091C0253041F153
:1074E0002A3031F1822F84508630A8F48A819B8122
:1074F00090936D0080936C002930C1F08E81809351
:107500006E008D81827080936F002093700037FD34
:1075100071C09FEF70C0223021F480916B008E7F8C
:1075200003C080916B00816080936B0020E067C096
:1075300021E065C08A8110927C00222331F41092F0
:107540007D008CE790E022E050C0253019F4809354
:10755000840048C02630B1F58B81813019F480EA6F
:1075600090E704C0823041F482EB90E79093820070
:107570008093810022E122C08330F9F48A8188233C
:1075800041F482E790E7909382008093810024E0A9
:1075900015C0813041F486E790E790938200809394
:1075A00081002CE10BC0823041F482E990E7909396
:1075B0008200809381002EE001C020E080E480936F
:1075C0006A001DC0283019F486E890E009C029300F
:1075D00019F48093860006C02A3021F48CE790E0ED
:1075E00021E003C08CE790E020E09093820080933C
:1075F000810005C09E8180E880936A0007C08F816A
:10760000882319F49E81921708F0922F90936100BD
:1076100068C080916A0087FF64C080916E00092F66
:10762000891708F4082F801B80936E00FF2488239D
:1076300011F4FF24F39410E04DC080917000E091AC
:107640006C00F0916D00873058F03196F0936D002A
:10765000E0936C0031976991CF01F3D01F5F3AC07E
:1076600080E7E030F80708F03AC01E5FF89489918F
:10767000999121E00C0120935700E895112478940A
:10768000CF01029690936D0080936C008F7790707D
:10769000892B41F0FF20F1F01017E0F080916F008E
:1076A0008823C1F0F89483E080935700E89578949C
:1076B00007B600FCFDCFF89485E080935700E8956D
:1076C000789407B600FCFDCFF89481E180935700D1
:1076D000E8957894101708F4B0CFFF2011F01092BD
:1076E0006100109283008091600084FF71C08091DE
:1076F00061008F3F09F46CC0182F893008F018E042
:10770000811B809361008091730098E889278093A2
:107710007300112309F44AC080916A0087FF2AC0D0
:1077200080916E00811708F4182F811B80936E00E2
:1077300000917000C4E7D0E015C0E0916C00F091BA
:107740006D00073018F0CF0174D001C08491888398
:10775000219680916C0090916D00019690936D0040
:1077600080936C00812F90E08C589F4FC817D907E9
:1077700021F71AC0E0918100F091820086FF09C0D4
:10778000912FA4E7B0E084918D9331969150D9F771
:1077900007C0912FA4E7B0E081918D939150E1F75C
:1077A000F0938200E0938100193060F484E790E068
:1077B000612FC5DC612F6C5F6C3041F08FEF8093DF
:1077C000610004C08FEF809361006EE16093600000
:1077D00094E180B38C7031F49150D9F71092840009
:1077E00010927E0080916B00803130F0849B0FC03E
:1077F00080916B00805109C0849909C080916B0011
:10780000823028F080916B00825080936B008091D1
:107810006B00882309F031CEF8948B9A12BA1BBE04
:1078200015BE81E08BBF1BBEE0917100F09172002C
:107830000995E199FECF9FBB8EBBE09A99278DB346
:107840000895262FE199FECF9FBB8EBB2DBB0FB6AF
:10785000F894E29AE19A0FBE01960895F894FFCF4A
:067860005AFF1E95020014
:040000030000700089
:00000001FF
